:1000000000000420750300005D030000FD71000086
:1000100061030000630300006503000000000000AE
:100020000000000000000000000000006703000066
:1000300069030000000000006B0300006D03000076
:10004000D11900006F030000B11B0000211B00004C
:10005000451B00006F0300004D1200001922000034
:10006000B5270000CD270000E52700005D21000036
:100070006F030000951F00006F0300006F03000076
:10008000FD3D0000EDA90000011E00008D1B0000D9
:100090006F0300006F0300006F0300006F03000098
:1000A0006F0300006F030000FD270000152800000B
:1000B000051D0000251600000000000000000000E3
:1000C0006F0300001D1D0000351D0000691B0000AE
:1000D00071210000C91300006F030000013C000003
:1000E000D9A90000191F00006F03000000000000E4
:1000F000000000004D1D00000000000079260000F7
:1001000000000000000000000000000000000000EF
:1001100000000000000000000000000000000000DF
:1001200000000000000000000000000000000000CF
:1001300000000000000000000000000000000000BF
:1001400000000000000000000000000000000000AF
:10015000000000000000000000000000000000009F
:10016000000000000000000000000000000000008F
:10017000000000000000000000000000000000007F
:10018000000000000000000000000000000000006F
:10019000000000000000000000000000000000005F
:1001A000000000000000000000000000000000004F
:1001B000000000000000000000000000000000003F
:1001C000000000000000000000000000000000002F
:1001D000000000000000000000000000000000001F
:1001E000000000000000000000000000000000000F
:1001F00000000000000000000000000000000000FF
:10020000354936480A1A02D0072291438D463449AF
:1002100034480A1A06D00722914381F30988022242
:1002200082F3148830483149314A00F044F83148AB
:100230003149324A00F03FF831483249324A00F041
:100240003AF832483249334A00F035F832483349F7
:10025000334A00F030F833483349344A00F02BF881
:1002600033483449344A00F026F8344834490022EF
:1002700000F02CF833483449002200F027F83348C6
:100280003349091A082902DB002202604160314A21
:1002900090471F481F49884205D00268043003B4C4
:1002A000904703BCF7E700208646EC46002000217B
:1002B000294A9047FEE7884207D0521A05D00378B2
:1002C00001300B700131013AF9D17047884202D0F8
:1002D00002700130FAE770470000042000E00320BC
:1002E0000000042000000420E405010014020020A6
:1002F00014030020D0030000D003000094BB0000D2
:10030000E4050100140200201402002064C0000073
:1003100064C0000064C0000064C0000064C000004D
:1003200064C0000064C0000064C00000E405010077
:10033000E40601001403002014030020140300202D
:100340000C4300200C4300200C4300200C430020F1
:100350000C6300209D030000DDB50000FEE7FEE712
:10036000FEE7FEE7FEE7FEE7FEE7FEE7FEE7FEE765
:1003700000F002B8FFF7FCBF0F484FF007018843B9
:1003800085460E4880470E48016841F470010160BF
:10039000BFF34F8FBFF36F8FFFF732BF09480A4992
:1003A0000A4A884207D0521A05D0037801300B70F0
:1003B0000131013AF9D1704700000420BDAD0000C1
:1003C00088ED00E050BE0000000000201402002074
:1003D000044BD3F80034002B14BF01230023DBB2FD
:1003E000184670470000014008B500F04DFB00BF03
:1003F00008BD000008B500F061FB024B00225A70F6
:1004000000BF08BD1403002000B583B00023019392
:10041000164B1B78002B02D08523019318E0134B59
:1004200000229A60114B00225A60104B00221A6180
:100430000E4B0022DA600E4800F0CAFA019000F07C
:10044000EFFA0A4B002283F82020084B01221A7091
:10045000FFF7BEFF0346002B02D0044B01229A7027
:10046000019B184603B05DF804FB00BF1403002095
:10047000A906000084B001900091019B1B680393C2
:1004800006E0039A009B9A420DD0039B1B680393DE
:10049000039B002BF5D1019B1A68009B1A60019BFE
:1004A000009A1A6000E000BF04B0704784B0019069
:1004B000019B1B680393039B002B03D0039B1A68CB
:1004C000019B1A60039B184604B0704700B583B0C7
:1004D0000190224B1B78002B03D12149F62006F016
:1004E000BDFF1E4B9B78DBB2002B12D0019B002B73
:1004F00003D0019B5B6801209847002005F056FB64
:10050000164BDB680133154AD360002005F062FB0F
:1005100017E0002005F04AFB019B002B03D0019956
:100520001048FFF7A7FF0D4BDB68002B01D100F04F
:1005300091FA0A4BDB680133084AD360002005F0CA
:1005400049FB064BDB68002B04D105494FF4897049
:1005500006F084FF00BF03B05DF804FB1403002025
:100560006CC000002403002000B583B00190234B31
:100570001B78002B04D1224940F2331006F06EFFA5
:100580001E4B5B78DBB2002B12D0019B002B03D0FB
:10059000019B5B6800209847002005F007FB174B84
:1005A0005B680133154A5360002005F013FB17E028
:1005B000002005F0FBFA019B002B03D001991148A4
:1005C000FFF758FF0D4B5B68002B01D1FFF70CFFC5
:1005D0000A4B5B680133094A5360002005F0FAFAC0
:1005E000064B5B68002B04D1054940F24F1006F022
:1005F00035FF00BF03B05DF804FB00BF140300200B
:100600006CC000001C03002008B5124B1B78002BA7
:1006100004D111494FF4AA7006F020FF0D4B5B681E
:10062000002B04D10C4940F2551006F017FF0020B2
:1006300005F0BCFA074B5B68013B064A5360054B6B
:100640005B68002B01D1FFF7D5FE002005F0C2FA50
:1006500000BF08BD140300206CC0000000B585B0C9
:1006600003468DF807309DF80730002B02D10C4B64
:10067000039301E00B4B03930398FFF717FF0290DE
:10068000029B002B06D0029B5B689DF8072010465A
:100690009847F1E700BF00BF05B05DF804FB00BF5D
:1006A0001C0300202403002000B585B003468DF80C
:1006B00007309DF80730002B05D11F4B01225A70DF
:1006C0000020FFF7CBFF9DF80730012B05D11A4B17
:1006D00001229A700120FFF7C1FF9DF80730022B1D
:1006E00002D11648FFF740FF9DF80730032B1ED1BB
:1006F000FFF78AFF104B93F82030DBB2042B0CBFBE
:10070000012300238DF80F300B4B002283F82020AB
:10071000094BDB69002B0AD0074BDB699DF80F20E2
:10072000002A01D0032200E002221046984700BFB1
:1007300005B05DF804FB00BF14030020280300206F
:1007400010B487B001900091019B009A53E8004FCC
:1007500004EA020043E8000191F0000FF6D105948D
:1007600004900391059B184607B05DF8044B704751
:1007700082B003468DF807309DF90730002B0CDB63
:100780009DF8073003F01F0205499DF907305B090A
:10079000012000FA02F241F8232000BF02B07047A6
:1007A00000E100E082B0034600918DF807309DF92A
:1007B0000730002B0ADB009BDAB20C499DF90730A9
:1007C0005201D2B20B4483F800230BE0009BDAB253
:1007D00007499DF8073003F00F03043B5201D2B2E2
:1007E0000B441A7600BF02B0704700BF00E100E082
:1007F00000ED00E082B00190019B1B0B5BB218463C
:1008000002B0704700B583B003460A468DF8073042
:1008100013468DF806309DF80630072B03D908499A
:100820006B2006F01BFE9DF806209DF9073011464F
:100830001846FFF7B7FF00BF03B05DF804FB00BF29
:1008400028C1000000B583B003468DF807309DF93C
:1008500007301846FFF78CFF00BF03B05DF804FBBC
:1008600082B003468DF807300F4A9DF90730002B00
:1008700000DA1F335B115BB252F823209DF9073079
:10088000594203F01F0301F01F0158BF4B425BB2F6
:1008900022FA03F303F00103002B14BF012300230A
:1008A000DBB2184602B0704700E100E082B0019070
:1008B0004FF08042019BC2F8043300BF02B0704782
:1008C00082B001904FF08042019BC2F8083300BF14
:1008D00002B0704782B003468DF807309DF80730AC
:1008E00003F1804301221A6000BF02B0704784B058
:1008F0000346ADF80630BDF8063003F18043002210
:100900001A60BDF8063003F180431B680393039B14
:1009100000BF04B0704782B00346ADF80630BDF8A2
:10092000063003F180431B68002B14BF0123002312
:10093000DBB2184602B0704782B001904FF080429F
:10094000019BC2F8183500BF02B0704782B0034661
:100950008DF807304FF08043D3F80C3403F00112C8
:100960009DF8073043F480339A420CBF01230023E3
:10097000DBB2184602B0704700B583B006238DF88D
:1009800007304FF08040FFF735FF03461846FFF76A
:1009900067FF034683F00103DBB2002B13D04FF057
:1009A0008040FFF727FF03461A469DF80730194697
:1009B0001046FFF727FF4FF08040FFF71BFF03466D
:1009C0001846FFF73FFF00BF03B05DF804FB0000CF
:1009D00000B585B00190019B002B03D10E49A420E6
:1009E00006F03CFD002303930C4B1B79002B02D037
:1009F000852303930BE0094B00229A71074A019B60
:100A00001360064B01221A71044B00225A71039B9A
:100A1000184605B05DF804FB60C1000088030020A3
:100A200008B5094B1B79002B03D10849BD2006F0FE
:100A300015FDFFF7A1FF0020FFF77EFF044B012209
:100A40001A7000BF08BD00BF8803002060C100000D
:100A50009003002008B50A4B1B79002B03D10949EC
:100A6000EA2006F0FBFC4FF48270FFF740FF022003
:100A7000FFF71CFF0820FFF72DFF00BF08BD00BFD8
:100A80008803002060C1000008B50A4B1B79002BC9
:100A900004D109494FF4817006F0E0FC4FF48070F6
:100AA000FFF725FF0120FFF701FF0020FFF712FFEE
:100AB00000BF08BD8803002060C1000008B50F4BCF
:100AC0001B79002B04D10E494FF4857006F0C6FC4B
:100AD0000120FFF7F5FE4FF48070FFF708FF0420B8
:100AE000FFF7F8FE00BF0120FFF730FF0346002BA1
:100AF000F9D1024B00225A7100BF08BD88030020C3
:100B000060C1000008B54FF48070FFF704FF034692
:100B1000002B14D04FF48070FFF7E9FE0120FFF79F
:100B2000CFFE264B5B7983F00103DBB2002B06D0AE
:100B3000224B01225A71214B1B68002098474FF429
:100B40008270FFF7E8FE0346002B0AD04FF4827054
:100B5000FFF7CDFE0220FFF7B3FE184B1B68012004
:100B600098474FF48870FFF7D6FE0346002B0AD053
:100B70004FF48870FFF7BBFE1020FFF7A1FE0F4B6C
:100B80001B68022098474FF48670FFF7C4FE0346A7
:100B9000002B10D00A4B00221A604FF48670FFF72A
:100BA000A6FE0820FFF78CFE044B00229A71034B2F
:100BB0001B680320984700BF08BD00BF88030020C2
:100BC000340C004082B003468DF807309DF90730A1
:100BD000002B0CDB9DF8073003F01F0205499DF93F
:100BE00007305B09012000FA02F241F8232000BF20
:100BF00002B0704700E100E082B0034600918DF83A
:100C000007309DF90730002B0ADB009BDAB20C4954
:100C10009DF907305201D2B20B4483F800230BE058
:100C2000009BDAB207499DF8073003F00F03043B3D
:100C30005201D2B20B441A7600BF02B0704700BF17
:100C400000E100E000ED00E082B00190019B1B0B91
:100C50005BB2184602B0704700B583B003460A463F
:100C60008DF8073013468DF806309DF80630072BB7
:100C700003D908496B2006F0F1FB9DF806209DF989
:100C8000073011461846FFF7B7FF00BF03B05DF805
:100C900004FB00BF2CC2000000B583B003468DF8F2
:100CA00007309DF907301846FFF78CFF00BF03B0EF
:100CB0005DF804FB00B583B00346ADF80630BDF81F
:100CC0000630184600F026F803461B68012B0CBFBF
:100CD00001230023DBB2184603B05DF804FB00B526
:100CE00085B00346ADF80630BDF80630184600F072
:100CF00011F803461A4600231360BDF80630184663
:100D000000F008F803461B680393039B00BF05B07F
:100D10005DF804FB82B00346ADF80630BDF806303E
:100D200003F1804303F5C043184602B0704700004A
:100D300082B00190034A019BC2F8043300BF02B0A5
:100D4000704700BF0060004082B00190034BD3F8B1
:100D50000423019B1340184602B070470060004016
:100D600082B00190054A019B03F5A27352F823302B
:100D70001B0A03F03F03184602B0704700600040B2
:100D800082B00190064A019B03F5A27352F823300A
:100D90001B0C03F00303DBB2184602B0704700BF20
:100DA0000060004000B583B00190019B1B681846AD
:100DB00000F0AAF80346002B04D10B494FF4F6705B
:100DC00006F04CFB019B1B681F2B02D84FF0A04381
:100DD00006E0019B1B6803F01F02019B1A60034B96
:100DE000184603B05DF804FB5CC20000000300502D
:100DF00000B585B001900B468DF8033001AB184665
:100E0000FFF7D0FF0390019A039B02F5E07253F8BD
:100E10002230019A23F44031039B02F5E07243F83B
:100E20002210019A039B02F5E07253F822309DF8DC
:100E3000032012041146019A1943039B02F5E07244
:100E400043F8221000BF05B05DF804FB00B585B083
:100E5000019001AB1846FFF7A5FF0390019A039B91
:100E600002F5E07253F822301B0C03F00303DBB2EF
:100E7000184605B05DF804FB88B00390029101921A
:100E8000164A05AB92E8030083E80300039B07932F
:100E900019E0079B9B0020336B4453F80C3CD3F8BC
:100EA0002025019B1A60079B9B0020336B4453F85D
:100EB0000C3C019A1268C3F82025019B043301936E
:100EC000079B01330793039A029B1344079A9A42A4
:100ED000DFD300BF00BF08B0704700BF8CC2000066
:100EE00000B585B0019001AB1846FFF75BFF03909A
:100EF000019B012202FA03F31A46039BC3F8202543
:100F000000BF05B05DF804FB84B00190019B5B0954
:100F1000029300230393029B002B03D0029B012B1F
:100F200004D007E04FF0FF33039303E04FF6FF7365
:100F3000039300BF019B03F01F030193039A019BDE
:100F400022FA03F303F00103002B14BF0123002353
:100F5000DBB2184604B0704784B001900091009B4A
:100F60000393019BDB080293019B03F007030193AA
:100F70000122019B02FA03F30399029A0A441278B0
:100F80001340184604B0704782B00190044A019B98
:100F900013443833FF221A7000BF02B0704700BFFD
:100FA0009403002082B00190044A019B134438331B
:100FB00093F90030184602B0704700BF9403002038
:100FC00082B00190034A019B52F82330184602B0C8
:100FD000704700BF9403002084B00190074A019B32
:100FE0001344683393F900308DF80F309DF80F30BB
:100FF00023F0C003184604B0704700BF94030020DC
:1010000084B00190074A019B1344683393F9003080
:101010008DF80F309DF80F309B09DBB2184604B0F5
:10102000704700BF9403002082B003468DF807305C
:101030009DF80730094A4FF0FF3142F823109DF820
:101040000730072B07D99DF80730083B034A1344A4
:10105000FF2283F8682000BF02B07047940300208D
:1010600000B583B02D4B93F87430002B03D00823C8
:101070000193019B4EE000238DF8033011E09DF8B1
:1010800003301846FFF740FF0346002B04D09DF8BD
:1010900003301846FFF778FF9DF8033001338DF8D1
:1010A00003309DF803302F2BE9D900238DF803304E
:1010B00009E09DF803301846FFF7B6FF9DF80330AE
:1010C00001338DF803309DF803300D2BF1D9062242
:1010D000002113480AF0D3FC1248FFF7B5FD034680
:1010E00006211846FFF7B8FD0E48FFF7ADFD034691
:1010F0001846FFF7D1FD4FF4BE70FFF7F0FD4FF03B
:101100000040FFF715FE054B012283F874200023F1
:101110000193019B184603B05DF804FB9403002083
:10112000020400200060004000B585B00190019AE3
:1011300002210020FFF7A0FE002303930BE0039B96
:101140009B00019A13441B68002B01D0012306E089
:10115000039B01330393039B012BF0D90023184613
:1011600005B05DF804FB000000B587B001900023D6
:1011700005935BE0344A059B1344683393F90030D0
:10118000B3F1FF3F4ED00598FFF726FF0490019979
:101190000498FFF7E1FE0346002B44D00598FFF7C3
:1011A0002FFF03468DF80F300498FFF74FFE0346DC
:1011B0008DF80E309DF80E30022B01D1032300E094
:1011C00002238DF80D309DF80D3019460498FFF775
:1011D0000FFE0498FFF784FE0498FFF7E3FE034632
:1011E0001846FFF7EDFE0290029B002B1BD09DF8E6
:1011F0000F30032B0FD09DF80E30022B03D19DF83A
:101200000F30012B07D09DF80E30032B0BD19DF82A
:101210000F30022B07D19DF80F20029B1146049836
:10122000984700E000BF059B01330593059B052B04
:10123000A0D90198FFF778FF0346002B97D100BF94
:1012400000BF07B05DF804FB9403002000B58BB02D
:101250000023089301AB00221A605A604FF4807398
:10126000ADF81A30012309930023079321E0BDF85C
:101270001A301846FFF71EFD0346002B0ED00998C2
:10128000FFF762FD0346002B08D0BDF81A30184660
:10129000FFF725FD089A099B13430893099B5B0000
:1012A0000993BDF81A300433ADF81A30079B0133A7
:1012B0000793079B072BDAD94FF4BE70FFF7FAFCB0
:1012C0000346002B0DD04FF4BE70FFF708FD089BBE
:1012D00043F00043089301AB1A4602210020FFF7B8
:1012E000CBFD089BDBB2002B29D0012309930023FF
:1012F000079321E0099A089B1340002B16D007980A
:10130000FFF72EFD05900798FFF73AFD03468DF88D
:1013100013300798FFF754FE0390039B002B05D072
:101320009DF81320039B114605989847099B5B0085
:101330000993079B01330793079B072BDAD9089B77
:10134000002B03DA01AB1846FFF70EFF00BF0BB00E
:101350005DF804FB84B001900B46ADF80230BDF897
:101360000230019A134400221A60BDF80230019A3B
:1013700013441B680393039B00BF04B0704782B003
:1013800001900B46ADF80230BDF80230019A1344CB
:101390001B68002B14BF01230023DBB2184602B0E8
:1013A000704782B001900091019B009AC3F8082316
:1013B00000BF02B0704782B00190019B0022C3F8C9
:1013C000002500BF02B0704700B583B04FF48A71AA
:1013D0007648FFF7D4FF0346002B1CD04FF48A71E8
:1013E0007248FFF7B7FF724A537943F0080353710D
:1013F0006F4B5B7903F00203DBB2002B0BD06C4B1D
:101400005B7903F01003DBB2002B04D0684A5379F8
:1014100043F0200353714FF482716448FFF7AFFF2C
:101420000346002B1CD04FF482716048FFF792FFF7
:101430005F4A537943F0040353715D4B5B7903F0CA
:101440000103DBB2002B0BD0594B5B7903F0100387
:10145000DBB2002B04D0564A537943F0200353717A
:101460004FF484715148FFF78AFF0346002B19D0CF
:101470004FF484714D48FFF76DFF04214B48FFF78F
:1014800090FF4A48FFF797FF494B1B6800214948E6
:101490009847474B1B68002147489847444B012217
:1014A0001A717EE0424B5B7903F00203DBB2002B42
:1014B00014D03F4B5B7903F00103DBB2002B0DD05E
:1014C0003B4B5B7903F00803DBB2002B06D0384BB3
:1014D0005B7903F00403DBB2002B21D1344B5B7941
:1014E000C3F30003DBB283F00103DBB2002B06D0B1
:1014F0002F4B5B7903F00803DBB2002B10D12C4B90
:101500005B79C3F34003DBB283F00103DBB2002B52
:1015100047D0274B5B7903F00403DBB2002B40D0AC
:10152000234A53796FF3C3035371214A53796FF3FD
:10153000820353711E4B5B7903F02003DBB2002B57
:101540000FD01B4A53796FF345135371184A5379DF
:1015500043F010035371164B1B680121002098477C
:101560001FE0134A6B46103292E8030083E8030041
:101570000F4B0F4A1033083292E8030083E8030050
:101580000B4B00229A600A4B0022DA60084A53791A
:1015900043F010035371064B1B686A460121104645
:1015A000984700BF03B05DF804FB00BF0050024045
:1015B0000C0400201C0400201404002082B0034608
:1015C000ADF80630BDF8063003F1804303F5E8338B
:1015D0001B68002B14BF01230023DBB2184602B0A6
:1015E000704784B00346ADF80630BDF8063003F10D
:1015F000804303F5E83300221A60BDF8063003F19A
:10160000804303F5E8331B680393039B00BF04B0DA
:1016100070470000024B0022C3F8002500BF70474E
:1016200000D0014000B58FB04FF48070FFF7C6FFC7
:101630000346002B68D04FF48070FFF7D2FF6C4B4D
:101640009B7C8DF836306A4B9B7C03F00103002BAA
:101650000CBF01230023DBB28DF835309DF8353007
:10166000634A9B0013445B68002B04D1604B5B7C96
:10167000DBB2022B2BD100238DF830305C4B0022E3
:10168000DA745B4B5B7CDBB2022B05D100230B933E
:10169000574B01225A7411E09DF83630544A9B0092
:1016A00013445B680B939DF83630514A9B001344FA
:1016B00000225A604E4A9DF83530937401238DF80C
:1016C00028304B4B1B680AAA1046984713E0484B3A
:1016D000DB7C002B0FD100238DF81C3000230893F6
:1016E00001238DF82430424B0122DA74404B1B68F1
:1016F00007AA104698473E4B5B7CDBB2022B5DD1BC
:101700003B4B01225A7459E04FF48270FFF756FFA9
:101710000346002B52D04FF48270FFF762FFFFF7B1
:1017200079FF334B00225A7400238DF818300023C0
:101730008DF810302E4B9B7C2D4A9B0013445B6828
:10174000002B12D02A4B9B7C294A9B0013445B68D8
:101750000593274B9B7C264A9B00134400225A602A
:10176000234B1B6804AA10469847214B9B7C03F02F
:101770000103002B0CBF01230023DBB28DF83730AF
:101780009DF837301A4A9B0013445B68002B12D037
:101790009DF83730164A9B0013445B6805939DF80B
:1017A0003730134A9B00134400225A60104B1B68C9
:1017B00004AA104698470E4B00229A740C4B1B7DCE
:1017C000DBB2002B0FD001238DF8043000230293ED
:1017D00000238DF80C30064B00221A75044B1B6851
:1017E00001AA1046984700BF0FB05DF804FB00BF88
:1017F0002404002084B00346ADF80630BDF806305E
:1018000003F1804300221A60BDF8063003F18043E3
:101810001B680393039B00BF04B0704782B003466C
:10182000ADF80630BDF8063003F180431B68002B8D
:1018300014BF01230023DBB2184602B0704700B585
:1018400085B00346ADF80630BDF806301846FFF700
:10185000E5FF03468DF80F309DF80F30002B04D0C4
:10186000BDF806301846FFF7C5FF9DF80F30184643
:1018700005B05DF804FB4FF08043D3F804331846FD
:101880007047000000B583B0FFF7F5FF0190019BA2
:1018900003F00403002B12D04FF48470FFF7CFFF46
:1018A0000346002B0BD0464B1B68002B04D1454947
:1018B0004FF48B7005F0D2FD414B1B689847019B9C
:1018C00003F02003002B13D04FF48A70FFF7B7FF0B
:1018D0000346002B0CD03C4B1B68002B04D139492C
:1018E00040F21F1005F0BAFD374B1B6800209847E7
:1018F000019B03F04003002B13D04FF48C70FFF7D3
:101900009EFF0346002B0CD02F4B1B68002B04D1ED
:101910002C494FF4937005F0A1FD2B4B1B6801205F
:101920009847019B03F08003002B13D04FF48E7077
:10193000FFF785FF0346002B0CD0244B1B68002BC0
:1019400004D1204940F22F1005F088FD1F4B1B6881
:1019500000209847019B03F48073002B13D04FF4B1
:101960009070FFF76CFF0346002B0CD0174B1B68E1
:10197000002B04D113494FF49B7005F06FFD134BFE
:101980001B6801209847019B03F40073002B13D0C0
:101990004FF49270FFF753FF0346002B0CD00B4B14
:1019A0001B68002B04D1074940F23D1005F056FD9D
:1019B000064B1B680220984700BF03B05DF804FB8C
:1019C0003C04002024C50000400400204404002002
:1019D00008B5FFF757FFFFF795F800BF08BD0000F7
:1019E00082B003468DF807309DF80730044A012184
:1019F00001FA03F3C2F8083500BF02B0704700BF18
:101A000000F0014082B003468DF807309DF80730A2
:101A1000012202FA03F3184602B0704700B583B002
:101A200003468DF807309DF807301846FFF7EAFFA8
:101A30000346C3F31303002B14BF01230023DBB2BF
:101A4000184603B05DF804FB82B0019001231846EC
:101A500002B0704700B583B003468DF807309DF89B
:101A600007301846FFF7CEFF03461846FFF7ECFF96
:101A70000346184603B05DF804FB000000B583B0D0
:101A800003468DF807309DF807301846FFF7BAFF78
:101A90000246064B1B681340002B14BF0123002392
:101AA000DBB2184603B05DF804FB00BF4804002019
:101AB00000B585B003468DF80730002303939DF8E9
:101AC00007301846FFF7C6FF034683F00103DBB279
:101AD000002B02D0072303931CE09DF80730184623
:101AE000FFF79CFF0346002B0DD09DF807301846EA
:101AF000FFF7C4FF034683F00103DBB2002B02D0E3
:101B00000823039306E09DF807301846FFF768FFA7
:101B100000230393039B184605B05DF804FB000007
:101B200008B5064B1B68002B03D10549452005F07D
:101B300095FC024B1B68984700BF08BD4C04002071
:101B400078C5000008B5064B1B68002B03D105497A
:101B5000482005F083FC024B1B68984700BF08BD76
:101B60005404002078C5000008B5064B1B68002B04
:101B700003D105494B2005F071FC024B1B689847C7
:101B800000BF08BD5C04002078C5000008B5064B06
:101B90001B68002B03D105494E2005F05FFC024B6A
:101BA0001B68984700BF08BD6404002078C500008A
:101BB00008B5064B1B68002B03D10549512005F0E1
:101BC0004DFC024B1B68984700BF08BD6C04002009
:101BD00078C5000084B001900B46ADF80230BDF826
:101BE0000230019A134400221A60BDF80230019AB3
:101BF00013441B680393039B00BF04B0704782B07B
:101C000001900B46ADF80230BDF80230019A134442
:101C10001B68002B14BF01230023DBB2184602B05F
:101C2000704700B583B0019000914FF4887101981E
:101C3000FFF7E5FF0346002B12D04FF4887101989F
:101C4000FFF7C8FF009B5B7903F00403002B07D06C
:101C5000009B1B68002B03D0009B1B68012098474A
:101C60004FF48A710198FFF7CAFF0346002B12D088
:101C70004FF48A710198FFF7ADFF009B5B7903F089
:101C80000803002B07D0009B1B68002B03D0009B90
:101C90001B68022098474FF48E710198FFF7AFFF41
:101CA0000346002B12D04FF48E710198FFF792FF7C
:101CB000009B5B7903F01003002B07D1009B1B688E
:101CC000002B03D0009B1B68002098474FF48271C3
:101CD0000198FFF794FF0346002B0FD04FF4827159
:101CE0000198FFF777FF009B01221A71009B1B6888
:101CF000002B03D0009B1B680320984700BF03B054
:101D00005DF804FB08B503490348FFF78AFF00BFED
:101D100008BD00BF7404002000C0014008B503499D
:101D20000348FFF77EFF00BF08BD00BF7C04002012
:101D30000010024008B503490348FFF772FF00BFD7
:101D400008BD00BF840400200020024008B50349FC
:101D50000348FFF766FF00BF08BD00BF8C040020EA
:101D600000D0024082B003468DF80730044BD3F810
:101D700004239DF807301340184602B0704700BF97
:101D80000020014084B00346ADF80630BDF80630AF
:101D900003F1804303F5903300221A60BDF806304A
:101DA00003F1804303F590331B680393039B00BF4B
:101DB00004B0704782B00346ADF80630BDF8063077
:101DC00003F1804303F590331B68184602B0704757
:101DD000024BD3F80C351846704700BF0020014075
:101DE000024BD3F818351846704700BF0020014059
:101DF000024BD3F848351846704700BF0020014019
:101E000000B583B04FF48070FFF7D4FF0346002B7A
:101E100019D00120FFF7A6FF0346002B13D04FF483
:101E20008070FFF7AFFF4FF48073ADF80030FFF71D
:101E3000CFFF03465BB28DF80230264B1B686A4623
:101E400092E8030098474FF48270FFF7B3FF034610
:101E5000002B1FD00220FFF785FF0346002B19D06F
:101E60004FF48270FFF78EFF4FF48273ADF80030AD
:101E7000FFF7B6FF03461BB2ADF80230FFF7B8FF1D
:101E800003469BB2ADF80430124B1B686A4692E8D9
:101E9000030098474FF48470FFF78CFF0346002B34
:101EA00013D00420FFF75EFF0346002B0DD04FF444
:101EB0008470FFF767FF4FF48473ADF80030054B73
:101EC0001B686A4692E80300984700BF03B05DF8BC
:101ED00004FB00BF9404002082B001900B46ADF8D3
:101EE0000230BDF80230019A134400221A6000BF8C
:101EF00002B0704782B001900B46ADF80230BDF8D9
:101F00000230019A13441B68002B14BF01230023E5
:101F1000DBB2184602B0704708B54FF480710B4829
:101F2000FFF7E8FF0346002B0ED0094B00225A7141
:101F30004FF480710548FFF7CFFF054B1B68044A3B
:101F4000926811460020984700BF08BD00900240EB
:101F50009804002084B00346ADF80630BDF8063082
:101F600003F1804303F5504300221A60BDF80630A8
:101F700003F1804303F550431B680393039B00BFA9
:101F800004B07047024BD3F80835DBB218467047EF
:101F900000D0004000B583B04FF48070FFF7DAFF47
:101FA000FFF7F0FF03468DF80730054B1B689DF8DF
:101FB00007201046984700BF03B05DF804FB00BF40
:101FC000A404002082B001900091019B009AC3F804
:101FD000082300BF02B0704782B001900091019BBE
:101FE000D3F80423009B1340184602B0704782B018
:101FF00001900B46ADF80230BDF80230019A13444F
:102000001B68184602B0704784B001900B46ADF8CB
:102010000230BDF80230019A134400221A60BDF864
:102020000230019A13441B680393039B00BF04B062
:10203000704782B001900091019B009AC3F8482339
:1020400000BF02B07047000000B589B00390029154
:1020500001924FF4803306934FF4A073ADF81E3015
:102060000023059330E006990398FFF7B5FF034678
:10207000002B1ED0BDF81E3019460398FFF7B7FF9E
:102080000346002B15D006990398FFF7D2FF069957
:102090000398FFF797FFBDF81E3019460398FFF726
:1020A000B3FF2D4A029B52F82330059AD2B2104654
:1020B0009847069B5B000693BDF81E300433ADF8CD
:1020C0001E30059B01330593059A019B9A42CAD3A2
:1020D0004FF48073ADF81E3001210398FFF77CFFA9
:1020E0000346002B14D0BDF81E3019460398FFF7A5
:1020F0007EFF0346002B0BD0BDF81E301946039817
:10210000FFF782FF144A029B52F8233004209847BD
:102110004FF48273ADF81E3002210398FFF75CFF85
:102120000346002B14D0BDF81E3019460398FFF764
:102130005EFF0346002B0BD0BDF81E3019460398F6
:10214000FFF762FF044A029B52F8233005209847AC
:1021500000BF09B05DF804FBA804002008B5032205
:1021600000210248FFF770FF00BF08BD00B000402B
:1021700008B5042201210248FFF766FF00BF08BD31
:102180000040024082B003468DF807309DF80730CA
:1021900003F1804303F5E04301221A6000BF02B05F
:1021A000704782B00346ADF80630BDF8063003F143
:1021B000804303F5E0431B68002B14BF0123002379
:1021C000DBB2184602B0704784B00346ADF8063063
:1021D000BDF8063003F1804303F5E04300221A60A6
:1021E000BDF8063003F1804303F5E0431B68039319
:1021F000039B00BF04B0704782B001900091054A74
:10220000019BC2F82C36034A009BC2F8303600BF4F
:1022100002B070470070004000B58FB04FF482707C
:10222000FFF7BFFF0346002B46D04FF48270FFF745
:10223000CBFF904B93F82E3083F00103DBB2002BE1
:1022400004D18C4B93F82F30002B35D000238DF820
:102250001C30884B5B680893864B1B899BB2ADF89A
:102260002430844BDB68002B03D1824B00221A748C
:1022700019E0804B1A8B7F4B5A837E4BDB687D4A7B
:1022800053607C4B1A8B7B4B1A817A4B0022DA60AD
:10229000784B93F82E3083F00103DBB2002B02D091
:1022A0000020FFF76FFF734B1B6807AA1046984783
:1022B000704B002283F82F206E4B93F82E30002BAA
:1022C00062D04FF48070FFF76CFF0346002B5BD0A9
:1022D0004FF48070FFF778FF664B5A8B654B93F88D
:1022E0002D309BB29A421CD9624B5A8B614B93F8AA
:1022F0002D309BB2D31A9AB25E4B5A835D4B5A680B
:102300005C4B1B899BB219465A4B5B8BCB1A5B000B
:102310001344584A92F82D2011461846FFF76CFFD7
:102320002BE0544B5A8B534B93F82D309BB29A426F
:1023300014D1504BDB68002B10D04E4B012283F898
:102340002F204C4B00225A834A4BDB68494A92F8B3
:102350002D2011461846FFF74FFF0EE0454B5A8BD4
:10236000444B93F82D309BB29A4206D1414B012247
:1023700083F82F203F4B00225A834FF48270FFF7DF
:1023800023FF0420FFF7FEFE4FF48870FFF709FFDC
:102390000346002B0ED04FF48870FFF715FF354B26
:1023A00000221A7402238DF81030324B1B6804AAE5
:1023B000104698474FF48A70FFF7F3FE0346002B50
:1023C00007D04FF48A70FFF7FFFE2A4B00221A74E1
:1023D0004CE0284B5B690D9345E00D9B0A930A9BEB
:1023E000002B01D1202303E00A9BB3FA83F3DBB275
:1023F0000C934FF000420C9B22FA03F3DB430D9A3F
:1024000013400D930C9B9BB246339BB29B00ADF8DF
:102410002E30BDF82E301846FFF7C3FE0346002BC2
:1024200021D0BDF82E301846FFF7CEFE01238DF8DF
:102430000430BDF82E30A3F58C73DB08DBB28DF8C9
:102440000830BDF82E30A3F58C7303F00403002B85
:102450000CBF01230023DBB28DF80930054B1B684C
:1024600001AA104698470D9B002BB6D100BF0FB0B4
:102470005DF804FBB004002084B001900B46ADF879
:102480000230BDF80230019A134400221A60BDF8F0
:102490000230019A13441B680393039B00BF04B0EE
:1024A000704782B001900B46ADF80230BDF80230A3
:1024B000019A13441B68002B14BF01230023DBB2D5
:1024C000184602B07047000000B583B00190019B30
:1024D0001B68184600F05AF80346002B04D10B493C
:1024E0004FF4F67004F0BAFF019B1B681F2B02D853
:1024F0004FF0A04306E0019B1B6803F01F02019B05
:102500001A60034B184603B05DF804FB5CC9000079
:102510000003005000B585B0019001AB1846FFF7ED
:10252000D3FF0390019B012202FA03F3194603989B
:1025300000F018F800BF05B05DF804FB00B585B0E9
:10254000019001AB1846FFF7BFFF0390019B0122EA
:1025500002FA03F31946039800F00EF800BF05B025
:102560005DF804FB82B001900091019B009AC3F8D2
:10257000082500BF02B0704782B001900091019B16
:10258000009AC3F80C2500BF02B0704784B00190D8
:10259000019B5B09029300230393029B002B03D052
:1025A000029B012B04D007E04FF0FF33039303E0BD
:1025B0004FF6FF73039300BF019B03F01F030193CA
:1025C000039A019B22FA03F303F00103002B14BFCB
:1025D00001230023DBB2184604B0704700B583B076
:1025E0000190019BDB7FFF2B0ED0019B9B7F002B7B
:1025F00005D0019BDB7F1846FFF7A0FF04E0019B9D
:10260000DB7F1846FFF786FF019B00225A77019B6C
:1026100000221A72019B1B68019A02F10800019ABC
:1026200052681146984700BF03B05DF804FB0000F4
:1026300000B583B0019000914FF48C710198FFF7C1
:1026400030FF0346002B10D04FF48C710198FFF738
:1026500013FF009B1B68002B04D1064940F2972012
:1026600004F0FCFE0098FFF7B9FF00BF03B05DF86F
:1026700004FB00BF94C9000008B503490348FFF7F5
:10268000D7FF00BF08BD00BF4C05002000F002408E
:1026900084B001900B46ADF80230BDF80230019ACB
:1026A000134400221A60BDF80230019A13441B68DB
:1026B0000393039B00BF04B0704782B001900B46A8
:1026C000ADF80230BDF80230019A13441B68002BAC
:1026D00014BF01230023DBB2184602B0704782B05A
:1026E00001900091019BD3F80423009B1340002B21
:1026F00014BF01230023DBB2184602B0704782B03A
:102700000190019B9B0003F5A0739BB2184602B099
:10271000704782B001904FF48032019B02FA03F3BC
:10272000184602B0704700B587B003900291134677
:102730008DF8073000238DF8153030E09DF8153006
:102740001846FFF7DCFF0346ADF816309DF815304C
:102750001846FFF7DEFF0490BDF8163019460398BF
:10276000FFF7ABFF0346002B14D004990398FFF743
:10277000B6FF0346002B0DD0BDF81630194603985E
:10278000FFF786FF029B1B68029A5168BDF816206E
:10279000104698479DF8153001338DF815309DF897
:1027A00015209DF807309A42C8D300BF00BF07B07C
:1027B0005DF804FB08B5042202490348FFF7B3FFA4
:1027C00000BF08BD700500200080004008B504224D
:1027D00002490348FFF7A7FF00BF08BD7C050020A2
:1027E0000090004008B5042202490348FFF79BFF10
:1027F00000BF08BD8805002000A0004008B50622E3
:1028000002490348FFF78FFF00BF08BD9405002071
:1028100000A0014008B5062202490348FFF783FFE4
:1028200000BF08BDA005002000B0014082B00190AB
:10283000019B9A00024B1B681344184602B0704774
:102840000CCF000082B00190019B03F1804303F59F
:102850001C33184602B0704782B00190019B03F10F
:10286000804303F51C33184602B0704700B583B0AF
:1028700003468DF807309DF807301846FFF7E2FF52
:10288000034601221A60BFF36F8F00BFBFF34F8F63
:1028900000BF00BF03B05DF804FB00B583B0034682
:1028A000ADF80630BDF806301846FFF7CBFF0346FB
:1028B00000221A60BFF36F8F00BFBFF34F8F00BFBE
:1028C00000BF03B05DF804FB00B583B00346ADF86C
:1028D0000630BDF806301846FFF7BEFF03461B68FA
:1028E000002B14BF01230023DBB2184603B05DF8B0
:1028F00004FB00B585B00346ADF80630BDF80630E0
:102900001846FFF7E1FF03468DF80F309DF80F30B2
:10291000002B04D0BDF806301846FFF7BEFF9DF827
:102920000F30184605B05DF804FB0000024BD3F8E9
:1029300004331846704700BF00700240024BD3F8C2
:1029400000341846704700BF0070024082B001900A
:10295000064A019BC2F80034BFF36F8F00BFBFF37C
:102960004F8F00BF00BF02B0704700BF0070024031
:1029700000B583B0FFF7E2FF01900198FFF7E6FF93
:10298000BFF36F8F00BFBFF34F8F00BF019B18468F
:1029900003B05DF804FB0000024BD3F86C3418461A
:1029A000704700BF0070024082B00190064A019B50
:1029B000C2F86C34BFF36F8F00BFBFF34F8F00BFFF
:1029C00000BF02B0704700BF0070024000B583B086
:1029D000FFF7E2FF01900198FFF7E6FF019B184621
:1029E00003B05DF804FB0000024BD3F88034DBB287
:1029F000184670470070024000B585B003468DF858
:102A000007309DF90730002B05DA9DF8073003F0F9
:102A10000F03082B0EDD9DF90730002B05DB9DF819
:102A2000073003F00F03082B04DD1C4940F25F4020
:102A300004F014FD9DF90730002B04DA17494FF418
:102A40008C6004F00BFD9DF8073003F00803002BA9
:102A50000CD0134BD3F8C0340393039B03F480339F
:102A6000002B01D000230393039B13E09DF8073054
:102A700003F00803002B04D0084940F26B4004F037
:102A8000EDFC074A9DF8073003F00F0303F594733C
:102A900052F82330184605B05DF804FB00CE000064
:102AA0000070024000B585B003468DF807309DF9EF
:102AB0000730002B05DA9DF8073003F00F03082BD1
:102AC0000EDD9DF90730002B05DB9DF8073003F084
:102AD0000F03082B04DD184940F2714004F0BEFCDE
:102AE0009DF90730002B04DA134940F2724004F0DC
:102AF000B5FC9DF8073003F00803002B04D10E4904
:102B000040F2734004F0AAFC0C4BD3F8C03403939A
:102B1000039B002B03D14FF0FF33039306E0039B8D
:102B200003F48033002B01D000230393039B18464A
:102B300005B05DF804FB00BF00CE0000007002404D
:102B400000B583B003468DF807309DF90730002BA0
:102B500005DB9DF8073003F00803002B04D00C4977
:102B600040F2834004F07AFC0A4A9DF8073003F0F3
:102B70000F0303F59473002142F82310BFF36F8F06
:102B800000BFBFF34F8F00BF00BF03B05DF804FB71
:102B900000CE00000070024082B003468DF807307E
:102BA000034A9DF80730C2F8083500BF02B07047ED
:102BB00000700240024BD3F820351846704700BF22
:102BC00000700240044BD3F82C35002B14BF0123B6
:102BD0000023DBB2184670470070024000B587B092
:102BE0000346029101928DF80F309DF90F30002BB2
:102BF00036DA9DF80F3003F00803002B08D0354A71
:102C0000029BC2F8A036334A019BC2F8A4365DE0AD
:102C10009DF80F3003F00F038DF816309DF8163035
:102C2000072B04D92C4940F2345004F017FC2949F1
:102C30009DF8162013469B0013449B000B4403F59C
:102C4000C063029A1A6023499DF8162013469B0020
:102C500013449B000B4403F20463019A1A6035E0AD
:102C60009DF80F3003F00803002B08D0194A029B8F
:102C7000C2F8A037174A019BC2F8A43726E09DF896
:102C80000F3003F00F038DF817309DF81730072B26
:102C900004D9114940F2435004F0E0FB0D499DF87E
:102CA000172013469B0013449B000B4403F5E0637D
:102CB000029A1A6007499DF8172013469B00134497
:102CC0009B000B4403F20473019A1A6000BF07B023
:102CD0005DF804FB0070024000CE000082B0164B8D
:102CE0001B680193154B1B680093019B082B1FD198
:102CF000009B052B1AD801A252F823F0152D0000D5
:102D0000192D00001D2D0000212D0000252D000093
:102D1000292D000001230CE001230AE0012308E033
:102D2000012306E0012304E0012302E0012300E087
:102D30000023184602B07047300100103401001023
:102D400008B5FFF7CBFF0346184608BD00B583B0B2
:102D500003468DF807309DF90730002B05DA9DF802
:102D6000073003F00F03082B0EDD9DF90730002B11
:102D700005DB9DF8073003F00F03082B04DD0B493A
:102D80004FF4B97004F06AFB9DF90730002B01DAAB
:102D9000074A00E0074A9DF8073003F00F035B0085
:102DA00013441B88184603B05DF804FB38CE0000BE
:102DB000E4CE0000F8CE000000B583B003468DF8E5
:102DC00007309DF90730002B05DA9DF8073003F036
:102DD0000F03082B0EDD9DF90730002B05DB9DF856
:102DE000073003F00F03082B04DD054940F285206E
:102DF00004F034FB9DF80730184603B05DF804FB7F
:102E000038CE000000B583B003468DF807309DF939
:102E10000730002B05DA9DF8073003F00F03082B6D
:102E20000EDD9DF90730002B05DB9DF8073003F020
:102E30000F03082B04DD0C4940F2922004F00EFB36
:102E40009DF90730002B01DA042200E028229DF8CA
:102E5000073003F00F03DBB29B00DBB21344DBB29D
:102E6000184603B05DF804FB38CE000000B583B00F
:102E700003468DF807309DF90730002B05DA9DF8E1
:102E8000073003F00F03082B0EDD9DF90730002BF0
:102E900005DB9DF8073003F00F03082B04DD0B4919
:102EA00040F2A22004F0DAFA9DF90730002B01DA93
:102EB000074A00E0074A9DF8073003F00F031B01A3
:102EC0001344184603B05DF804FB00BF38CE000081
:102ED00050060020C005002000B583B003468DF8E1
:102EE00007309DF90730002B05DA9DF8073003F015
:102EF0000F03082B0EDD9DF90730002B05DB9DF835
:102F0000073003F00F03082B04DD0B4940F2B52016
:102F100004F0A4FA9DF90730002B01DA002200E04A
:102F200010229DF8073003F00F03DBB21344DBB22D
:102F3000184603B05DF804FB38CE000082B00346AB
:102F40008DF807309DF807300F2B04D99DF8073016
:102F5000103BDBB204E09DF8073063F07F03DBB287
:102F6000184602B07047000008B5FFF7E9FE0346B7
:102F7000002B02D0034B82221A60034B01221A70ED
:102F800000BF08BD1C7C0240BC05002008B5FFF74F
:102F9000D7FE0346002B02D0034B00221A60034BDE
:102FA00000221A7000BF08BD1C7C0240BC05002036
:102FB00000B583B003468DF807309DF807301846FA
:102FC000FFF720FF03461846FFF750FC00BF03B091
:102FD0005DF804FB10B586B003468DF8073000207D
:102FE00002F0E4FD9DF807301846FFF73FFF05901B
:102FF0009DF90730002B39DB614B1B68DC439DF8E2
:1030000007301846FFF768FF03461A46012393402E
:103010002340002B05D09DF80730184600F08CFEA9
:1030200020E0059B00221A609DF807301846FFF744
:1030300053FF03461A4601239340DA43504B1B6863
:1030400013404F4A13609DF807301846FFF744FFBE
:1030500003461A4601239340DA434A4B1B68134048
:10306000484A1360059B03229A7383E09DF807305A
:1030700003F00803002B37D19DF80730802B1CD0BC
:103080009DF8073003F00F0303F2DA333E4A5B008A
:1030900013603E4B1B688DF812309DF8123043F0E0
:1030A00002038DF81230394B1A689DF812303749F7
:1030B00013430B60354B1B6816E0334B40F2B47280
:1030C0001A60324B1B688DF813309DF8133043F0B3
:1030D00004038DF813302D4B1A689DF813302B49DB
:1030E00013430B60294B1B68264B1B68DA43244BA8
:1030F0001B6842EA03049DF807301846FFF7ECFE10
:1031000003461A46012393402340002B32D09DF8FA
:1031100007301846FFF7E0FE03461A4601239340A6
:10312000DA43174B1B681340154A13609DF80730AC
:103130001846FFF7D1FE03461A46012303FA02F2AE
:10314000104B1B6813430F4A1360059B00221A6043
:10315000059B03229A7306238DF80C309DF80730E7
:103160008DF80E3003238DF80F30094B1B6803AA2E
:1031700010469847002002F02DFD00BF06B010BD9C
:10318000B8050020B4050020007802400478024011
:10319000AC05002000B583B0094B00221A70094B22
:1031A00000221A700023019301238DF80430064B8E
:1031B0001B6801AA1046984700BF03B05DF804FBE6
:1031C000B0050020B1050020AC05002000BF70470D
:1031D00000B583B080238DF80730FFF7D7FE9DF848
:1031E00007301846FFF742FE0090009B9B7B032BA5
:1031F0000ED19DF807301846FFF76EFE03461A46BB
:1032000001239340DB4319460C48FDF799FA11E07E
:10321000009B1B68002B0DD19DF807301846FFF767
:103220005BFE03461A4601239340DB4319460348DD
:10323000FDF786FA00BF03B05DF804FBB805002077
:1032400000B585B003468DF807309DF90730002B97
:1032500004DB264940F2B63004F000F99DF807304F
:1032600003F00803002B04D0204940F2B73004F0EB
:10327000F5F89DF8073003F00F03002B04DC1B4921
:103280004FF46E7004F0EAF8FFF780FE9DF8073007
:103290001846FFF7EBFD0390039B9B7B032B0ED19E
:1032A0009DF807301846FFF717FE03461A4601231C
:1032B0009340DB4319460E48FDF742FA11E0039BA9
:1032C0001B68002B0DD19DF807301846FFF704FE50
:1032D00003461A4601239340DB4319460448FDF791
:1032E0002FFA00BF05B05DF804FB00BF38CE000028
:1032F000B805002000B585B003468DF807309DF96C
:103300000730002B04DB28494FF4757004F0A6F851
:103310009DF8073003F00803002B04D1224940F246
:10332000D53004F09BF8FFF731FE9DF807301846C2
:10333000FFF79CFD0390039B9B7B032B0ED19DF815
:1033400007301846FFF7C8FD03461A46012393408D
:10335000DB4319461548FDF7F3F920E0039B1B6892
:10336000002B1CD19DF807301846FFF7B5FD03462A
:103370001A4601239340DB4319460C48FDF7E0F958
:1033800006238DF808309DF807308DF80A300023A9
:103390008DF80B30064B1B6802AA1046984700BFF9
:1033A00005B05DF804FB00BF38CE0000B805002072
:1033B000AC05002000B585B000238DF80F30FFF775
:1033C000E5FD9DF80F301846FFF750FD0290029B77
:1033D0009B7B032B0ED19DF80F301846FFF77CFD29
:1033E00003461A4601239340DB4319461548FDF76F
:1033F000A7F923E0029B1B68002B1DD19DF80F301D
:103400001846FFF769FD03461A4601239340DB4344
:1034100019460C48FDF794F906238DF804309DF801
:103420000F308DF8063000238DF80730064B1B68EF
:1034300001AA1046984701E000F077FC00BF05B0F4
:103440005DF804FBB8050020AC05002000B585B090
:1034500003468DF807309DF90730002B04DA2E491A
:1034600040F2144003F0FAFF9DF8073003F0080320
:10347000002B04D0284940F2154003F0EFFF9DF8DF
:10348000073003F00F03002B04DC234940F2164001
:1034900003F0E4FFFFF77AFD9DF807301846FFF7C9
:1034A000E5FC0390039B9B7B032B0ED19DF807301B
:1034B0001846FFF711FD03461A4601239340DB43EC
:1034C00019461648FDF73CF920E0039B1B68002BCA
:1034D0001CD19DF807301846FFF7FEFC03461A463C
:1034E00001239340DB4319460C48FDF729F90623D5
:1034F0008DF808309DF807308DF80A3000238DF8DC
:103500000B30074B1B6802AA1046984700F080FA60
:1035100000BF05B05DF804FB38CE0000B805002000
:10352000AC05002000B585B003468DF807309DF846
:10353000073003F00803002B04D11B4940F23A4046
:1035400003F08CFFFFF722FD9DF807301846FFF7C8
:103550008DFC0390039B9B7B032B20D0039B1B685C
:10356000002B1CD19DF807301846FFF7B5FC034629
:103570001A4601239340DB4319460C48FDF7E0F857
:1035800006238DF808309DF807308DF80A300023A7
:103590008DF80B30064B1B6802AA1046984700BFF7
:1035A00005B05DF804FB00BF38CE0000B805002070
:1035B000AC05002008B5FFF70BFE00BF08BD08B53D
:1035C0008120FFF73DFE00BF08BD08B58220FFF750
:1035D00037FE00BF08BD08B58320FFF731FE00BFEE
:1035E00008BD08B58420FFF72BFE00BF08BD08B555
:1035F0008520FFF725FE00BF08BD08B58620FFF730
:103600001FFE00BF08BD08B58720FFF719FE00BFE9
:1036100008BD08B58820FFF76DFE00BF08BD08B5DE
:10362000FFF7C8FE00BF08BD08B50120FFF70EFF79
:1036300000BF08BD08B50220FFF708FF00BF08BDA6
:1036400008B50320FFF702FF00BF08BD08B504203E
:10365000FFF7FCFE00BF08BD08B50520FFF7F6FE2A
:1036600000BF08BD08B50620FFF7F0FE00BF08BD8B
:1036700008B50720FFF7EAFE00BF08BD08B508201F
:10368000FFF750FF00BF08BD00B583B000238DF8E1
:103690000030FFF78FFA03469BB2ADF80230882066
:1036A000FFF71AFC03461A460123934001930820B2
:1036B000FFF7F8F90346B3F1FF3F09D00820FFF701
:1036C0000BFC03461A4601239340019A13430193CE
:1036D000074B1A68019B1343054A1360054B1B688F
:1036E0006A461046984700BF03B05DF804FB00BF70
:1036F000B4050020AC05002000B585B003460A469D
:103700008DF8073013468DF806309DF806300122FB
:103710009A402B4B1B681343294A13609DF90730CD
:10372000002B30DA9DF807301846FFF70FFB0346F1
:103730001846FFF7DEF80346002B0BD09DF8073044
:10374000802B05D09DF807301846FFF779FD01E082
:10375000FFF73EFD9DF8063001229A40194B1B6889
:103760001340002B27D106238DF80C309DF807302D
:103770008DF80E3000238DF80F30134B1B6803AA11
:103780001046984717E09DF8063001229A400D4BED
:103790001B681340002B0ED106238DF808309DF8CE
:1037A00007308DF80A3001238DF80B30064B1B686B
:1037B00002AA1046984700BF05B05DF804FB00BFA1
:1037C000B4050020B8050020AC05002010B5074B5B
:1037D0001C78064B1B781846FFF77EFB03461946FC
:1037E0002046FFF789FF00BF10BD00BFB1050020D4
:1037F00010B582B0FFF7F8F803468DF80730284B74
:103800001B68DB439AB2274B1B6842EA0304264B32
:103810001B781846FFF760FB03461A4601239340C6
:103820002340002B04D0204B1B781846FFF7D2FB17
:103830009DF90730002B01DB002200E080221A4BAB
:103840001A700020FFF748FB03461A46012303FACB
:1038500002F48020FFF740FB03461A460123934001
:103860002343DB4319460F48FCF76AFF8020FFF72C
:1038700033FB03461A46012303FA02F2084B1B6886
:103880001343074A13600023009305238DF800308B
:10389000064B1B686A461046984700BF02B010BD31
:1038A000B4050020B8050020B1050020AC050020BB
:1038B00000B585B0FFF75CF80390039B03F48073B9
:1038C000002B0CD0264B01221A70002302930223F6
:1038D0008DF80830234B1B6802AA10469847039BBB
:1038E00003F40073002B0CD01D4B00221A70002330
:1038F000019303238DF804301A4B1B6801AA10466C
:103900009847039B03F48063002B24D0144B1B784F
:10391000DBB2002B1FD0FFF755F9034683F00103FC
:10392000DBB2002B04D1104940F2F54003F096FDC4
:103930000B4B00221A700120FFF72EF95820FEF7DA
:1039400095FF0023009304238DF80030054B1B687E
:103950006A461046984700BF05B05DF804FB00BFFB
:10396000B0050020AC05002038CE000000B587B0BF
:10397000FFF72CF805902BE0059B0293029B93FA2E
:10398000A3F30193019B0393039B002B01D12023FD
:1039900003E0039BB3FA83F3DBB28DF813309DF899
:1039A00013301846FFF7CAFA03468DF812309DF817
:1039B0001330012202FA03F3DB43059A1340059307
:1039C0009DF813209DF8123011461846FFF794FE1B
:1039D000059B002BD0D100F01BF800BF07B05DF8AD
:1039E00004FB86B00190019B0493049B93FAA3F31C
:1039F0000393039B0593059B002B01D1202303E038
:103A0000059BB3FA83F3DBB2184606B0704700009B
:103A100010B588B0754B1B7883F00103DBB2002B27
:103A200000F0E180D3E0049B03F00123002B09D0D8
:103A3000049B03F001231846FFF7D3FF03468DF8DC
:103A40001E3005E00498FFF7CCFF03468DF81E30CA
:103A50009DF81E301846FFF771FA03468DF81D30A9
:103A60009DF81D301846FFF701FA0690069B1B686B
:103A7000002B04D15E4940F2615003F0EFFC9DF948
:103A80001D30002B15DA069B1B68069A5168069AB2
:103A9000928902A8984703468DF81F309DF81F3081
:103AA00083F00103DBB2002B56D0069B00221A6084
:103AB00052E09DF81D30184600F024F90590069B51
:103AC0001C68069B5968069B9B891A4602A8059BA1
:103AD000A04703468DF81F30029B002B08D1039BA3
:103AE000002B2FD0424940F27D5003F0B7FC29E073
:103AF000039B059A9A421CD9069B02229A739DF851
:103B00001E30012202FA03F3DB4319463948FCF761
:103B100017FE06238DF804309DF81D308DF8063011
:103B200002238DF80730344B1B6801AA10469847D2
:103B30004DE0039B059A9A4204D02D4940F28C50E7
:103B400003F08CFC9DF81F3083F00103DBB2002BE7
:103B500002D0069B00221A60FFF706FA9DF81E307D
:103B6000012202FA03F3DA43244B1B681340234A71
:103B70001360069B9A68039B1A44069B9A600299FD
:103B8000039A9DF81D301846FFF728F89DF81D3060
:103B90001846FFF70DFA00BF9DF81D301846FFF7D5
:103BA000D5F803461846FEF78FFE034683F001035F
:103BB000DBB2002B16D04FF48070FEF785FE034673
:103BC00083F00103DBB2002BE6D100BF0BE0094B11
:103BD0001A680A4B1B6813400493049B002B7FF464
:103BE00022AF00E000BF00BF08B010BDBC05002040
:103BF00038CE0000B8050020AC050020B405002038
:103C000000B58BB0FEF792FE0790079B0993002347
:103C1000089330E0099B0493049B93FAA3F3039366
:103C2000039B0593059B002B01D1202303E0059BFB
:103C3000B3FA83F3DBB28DF819309DF819301846CA
:103C4000FEF7F4FD03469BB21846FEF752FE03460C
:103C5000002B07D09DF81930012202FA03F3089ACD
:103C6000134308939DF81930012202FA03F3DB4352
:103C7000099A13400993099B002BCBD1089B03F4AD
:103C80000003002B14BF012300238DF81B30089B79
:103C900023F40003089321E0089B0193019B93FA0E
:103CA000A3F30093009B0293029B002B01D12023DE
:103CB00003E0029BB3FA83F3DBB28DF81A309DF870
:103CC0001A300E4A52F8233098479DF81A300122D4
:103CD00002FA03F3DB43089A13400893089B002B76
:103CE000DAD1FFF795FE9DF81B30002B01D0044B75
:103CF000984700BF0BB05DF804FB00BF80CE00000A
:103D0000F137000000B583B003468DF807309DF809
:103D100007301846FFF750F803461846FEF76CFECA
:103D20000346184603B05DF804FB08B54C20FEF7C7
:103D30009DFD00BF08BD000000B583B003468DF8AF
:103D400007309DF90730002B04DA144940F6DF00F4
:103D500003F084FB002001F029FF9DF8073018468E
:103D6000FFF7BAF803461A4601239340DA430C4B97
:103D70001B6813400A4A13609DF8073003F00803DC
:103D8000002B04D19DF807301846FEF7D9FE00201D
:103D900001F020FF00BF03B05DF804FB38CE000047
:103DA000B405002084B00346ADF80630BDF80630F7
:103DB00003F1804303F5803300221A60BDF806301A
:103DC00003F1804303F580331B680393039B00BF1B
:103DD00004B0704782B00346ADF80630BDF8063037
:103DE00003F1804303F580331B68002B14BF0123CC
:103DF0000023DBB2184602B07047000008B54FF44C
:103E00008070FFF7E7FF0346002B06D0044B1B68CA
:103E100098474FF48070FFF7C5FF00BF08BD00BF93
:103E2000E006002000B583B001900091019B1B6863
:103E30001B6800990198984700BF03B05DF804FB28
:103E400000B583B00190019B1B685B68019898479F
:103E500000BF03B05DF804FB00B583B00190019B87
:103E60001B689B680198984700BF03B05DF804FB8E
:103E700082B001900B468DF80330019BDB689DF802
:103E800003201A7100BF02B0704782B00190019BFD
:103E9000DB681B79184602B0704782B00190019B25
:103EA000DB6801225A7100BF02B0704782B00190F6
:103EB000019BDB6800225A7100BF02B0704782B0DC
:103EC0000190019BDB685B79184602B070470000E7
:103ED00000B58DB001900091364B01221A70364822
:103EE00005F0E0FE0890089B002B01D0089B5CE0E9
:103EF000324806F071F9324A324BD31ADB08079385
:103F000000230B9332E00023099300230A931DE062
:103F10000B9A0A9B9A4216D00B9BDB00294A13444A
:103F20001B6803930A9BDB00264A13441B68029319
:103F300014220299039807F055FD0346002B02DD79
:103F4000099B013309930A9B01330A930A9A079B41
:103F50009A42DDD30B9B9B001B4A13440493099B9D
:103F60009AB2049B1A800B9B01330B930B9A079B0D
:103F70009A42C8D300230B9312E00B9B9B00124A7A
:103F8000134406930B9B9B00104A13440593069B16
:103F900000225A80059B00221A600B9B01330B9371
:103FA0000B9A079B9A42E8D3002318460DB05DF8A0
:103FB00004FB00BF4C080020C8BD00003CD6000038
:103FC000C8BD0000E8BB0000140000200401002070
:103FD000024A034BD31ADB0818467047C8BD0000DD
:103FE000E8BB000000B587B001900B468DF80330A8
:103FF0009DF80330002B1FD0FFF7EAFF0490002349
:10400000059313E0059B9B000E4A13440393039B07
:104010001B881A46019B1B689A4204D1019B059A92
:104020001A60002309E0059B01330593059A049B60
:104030009A42E7D3052300E00023184607B05DF855
:1040400004FB00BF1400002000B585B001900B46B2
:104050008DF803309DF8032001AB11461846FFF799
:10406000C1FF0346002B07D1019BDB00054A134427
:104070000393039B1B6800E00023184605B05DF81E
:1040800004FB00BFE8BB000084B001900B468DF834
:104090000330019BDB00174A134402939DF8033061
:1040A000013B032B1CD801A252F823F0BD400000B5
:1040B000C5400000CD400000D740000000238DF82F
:1040C0000F3011E002238DF80F300DE0029B1B79B9
:1040D0008DF80F3008E0029B5B798DF80F3003E01C
:1040E00000238DF80F3000BF9DF80F30184604B044
:1040F000704700BFE8BB000086B001900023ADF818
:1041000016300023049316E00722049B9A40019B7B
:104110001A40049B22FA03F3ADF80E30BDF80E20CE
:10412000BDF816309A4203D9BDF80E30ADF81630FE
:10413000049B03330493049B092BE5D9BDF8163087
:10414000184606B07047000000B587B00390029192
:1041500013468DF80730029B9B001C4A13440593BD
:10416000029B9B001A4A13440493049B1968039A08
:1041700013465B001344072202FA03F3DB4301EA10
:104180000302049B1A60049B19689DF80700039AB8
:1041900013465B0013449840039A13465B00134494
:1041A000072202FA03F3034041EA0302049B1A6068
:1041B000049B1B681846FFF79FFF03461A46059BA2
:1041C0005A8000BF07B05DF804FB00BF1400002058
:1041D0000401002084B00190019BDB00034A1344DA
:1041E0000393039BDB79184604B07047E8BB0000DB
:1041F00000B589B00390029111461A460B468DF81E
:10420000073013468DF8063000238DF81F309DF8D7
:104210000630002B21D09DF8072002AB114618462E
:10422000FFF7E0FE0346002B31D1029B9B001B4AA7
:1042300013440593059B1968039A13465B001344C6
:10424000072202FA03F31940039A13465B00134452
:1042500021FA03F38DF81F3019E09DF8063083F042
:104260000103DBB2002B12D09DF8072002AB1146F0
:104270001846FFF7B7FE0346002B08D1029BDB0070
:10428000074A13440693069B9B798DF81F309DF8CF
:104290001F30184609B05DF804FB00BF0401002080
:1042A000E8BB000084B00190009100238DF80F302E
:1042B000019B1B7803F00403DBB2002B24D0019B8D
:1042C0001B78C3F30103DBB2012B02D0022B0CD00D
:1042D00017E0009B1B68019A1288C2F38312D2B2C6
:1042E00013449A1C009B1A600BE0009B1B68019A08
:1042F0005288C2F3891292B213449A1C009B1A602E
:1043000000BF01238DF80F309DF80F30184604B020
:104310007047000000B58BB00023ADF826303E4852
:1043200003F010FA3D4803F00DFA3D4B9B680493EF
:104330003C4B1B680693049A069B134002339B0078
:10434000374A13440433089304AB19460898FFF71F
:10435000A9FF0346002B09D0049A069B13400233A1
:104360009B002F4A134404330893EDE700BF00235A
:10437000079311E0049B5A1C0492069A1340079A73
:10438000920001A90A44264902339B000B445B6852
:104390001360079B01330793079B012BEAD99DF814
:1043A0000430C3F30103DBB2012B10D0022B1CD16C
:1043B000BDF80A30ADF82630BDF80630C3F38913D6
:1043C0009BB203339A08049B1344049313E0BDF893
:1043D0000A30ADF82630BDF80430C3F38313DBB2E6
:1043E0001A46049B1344049305E00F494FF4C2702E
:1043F00003F034F800BF094803F0B0F90590059BBD
:10440000002B02D0049B064A9360BDF82630184664
:104410000BB05DF804FB00BF640C0020600C0020B2
:104420004C0800201402002094D0000000B585B094
:104430000021074803F0F7F80390039B0293029BC7
:1044400083F310030193019B184605B05DF804FB4C
:10445000680C002000B589B003900291019200938E
:10446000039B1B0C0793FFF7E1FF0690FFF7B0FDDE
:104470000246079B934204D3214940F2A91002F05F
:10448000EDFF069B1904009B5A1C0A9B1340079AD8
:104490000A431C4902339B000B445A60009A0A9B52
:1044A000134002339B00174A134404330593039BC4
:1044B00003F00703D9B2059A137861F3C5031370AB
:1044C000019B03F00F03D9B2059A138861F3891396
:1044D0001380029BC3F31501059A136861F39F23B0
:1044E0001360059A1378012161F301031370059A93
:1044F00013786FF38203137000BF09B05DF804FBFB
:1045000094D000004C08002000B58BB003900291BD
:1045100013468DF80730039B0233089301238DF86F
:104520001F30002001F042FB3E4B5A68029B1A608C
:104530003D4B1A683B4B99683A4B5B68CB1A134466
:104540000133099314E00121384803F0CBF8FFF759
:10455000E1FE05900599354803F0C4F8324B1A681E
:10456000304B99682F4B5B68CB1A13440133099386
:10457000089A099B9A42E6D89DF81F30002B48D034
:10458000002304939DF80730002B17D09DF81030BE
:10459000012262F301038DF810309DF8103043F0D2
:1045A00004038DF81030039B03F00F03DAB2BDF85B
:1045B000103062F38913ADF8103016E09DF810301A
:1045C000022262F301038DF810309DF8103043F0A1
:1045D00004038DF81030039BC3F309039AB2BDF8AE
:1045E000123062F38F13ADF812300E4B5A680E4B37
:1045F0001B68134002339B000A4A1344043306939A
:10460000049A069B1A60074B5A68089B1344054A94
:104610005360002001F0DEFA9DF81F3018460BB001
:104620005DF804FB4C08002014020020680C0020F8
:1046300000B58BB005900491039202931F4B1B6849
:10464000079306AB012219460298FFF75DFF034668
:10465000002B24D0069B023309930023089311E01A
:10466000089B9B00039A1A44099B591C09910799BE
:104670000B401268124902339B000B445A60089B9E
:1046800001330893089A029B9A42E9D3069A079B42
:1046900000931346029A04990598FFF7DBFE084B36
:1046A0001B78002B05D000BF00F096F80346002BC6
:1046B000FAD100BF0BB05DF804FB00BF140200206C
:1046C0004C08002000B583B0019000910023002227
:1046D00000990198FFF7ACFF00BF03B05DF804FB41
:1046E00000B587B0039002910192019B059305AA42
:1046F000012302990398FFF79BFF00BF07B05DF805
:1047000004FB00B587B00390029101920093019BD6
:104710000493009B059304AA022302990398FFF7D0
:1047200087FF00BF07B05DF804FB00B589B00390B8
:10473000029101920093019B0593009B06930A9BB3
:10474000079305AA032302990398FFF771FF00BF9F
:1047500009B05DF804FB00B589B0039002910192A5
:104760000093019B0493009B05930A9B06930B9B6C
:10477000079304AA042302990398FFF759FF00BF87
:1047800009B05DF804FB00B58BB003900291019273
:104790000093019B0593009B06930C9B07930D9B35
:1047A00008930E9B099305AA052302990398FFF726
:1047B0003FFF00BF0BB05DF804FB0000054B9A689B
:1047C000044B5B689A420CBF01230023DBB21846FE
:1047D000704700BF4C08002000B59BB0FFF7EEFF0C
:1047E0000346002B01D00023E7E19B4B0022C3F8D6
:1047F0001824BFF34F8F00BF974B9B680493974BD0
:104800001B681193049A119B134002339B00924A38
:1048100013440433199300231893002317930023A0
:10482000169304AB19461998FFF73CFD0346002B7D
:1048300019D0894BD3F81834002B14D1864B5A6801
:10484000049B9A4205D8844B5B68834A936000239B
:10485000B3E1049A119B134002339B007E4A134438
:1048600004331993DDE70023159311E0049B5A1CD0
:104870000492119A1340159A920001A90A447649AC
:1048800002339B000B445B681360159B0133159347
:10489000159B012BEAD99DF8043003F00303DBB22A
:1048A000022B40F09C80BDF80630C3F389139BB205
:1048B0000F93BDF80630C3F389139BB2502B28BF6A
:1048C00050239BB20E930E9BC3F309039AB2BDF81B
:1048D000063062F38F13ADF806300E9B08330D934C
:1048E0009DF80430C3F3C203DBB216930D995C4804
:1048F00005F0E3F91890189B002B00F0D38018986E
:1049000005F06CFA01A9179B0822189805F022FB04
:10491000179B08331793049BDA43119B1340013311
:104920009B000C930E9A0C9B9A4242D90C9B002B35
:1049300008D0049A119B134002339B00464A13444B
:10494000043300E0474B0A930C9B002B02D00C9BD6
:10495000DBB201E00E9BDBB28DF827300C9B002B05
:1049600001D0404B00E0002308930C9B002B06D0A5
:104970000E9BDAB20C9BDBB2D31ADBB200E0002351
:104980008DF81F309DF82720179B0A99189805F07D
:10499000E1FA9DF82730179A13441793089B002BD0
:1049A00016D09DF81F20179B0899189805F0D2FA89
:1049B0000EE0049A119B134002339B00264A1344D5
:1049C00004330B93179B0E9A0B99189805F0C2FAB3
:1049D0000F9B03339A08049B1344049362E09DF8F1
:1049E000043003F00303DBB2012B5BD1BDF80430CC
:1049F000C3F38313DBB2062B28BF0623DAB2BDF85C
:104A0000043062F38913ADF80430BDF80430C3F309
:104A10008313DBB2023310939DF80430C3F3C20357
:104A2000DBB21693109B9B0019460D4805F045F923
:104A30001890189B002B35D0189805F0CFF901A9D4
:104A4000179B0822189805F085FA179B08331793CF
:104A5000002315931DE000BF4C0800201402002025
:104A6000C8BD000058080020049B5A1C0492119AEB
:104A7000134002339B00534A1344191D179B042211
:104A8000189805F067FA179B04331793159B0133A9
:104A90001593BDF80430C3F38313DBB21A46159B9C
:104AA0009342E1D3189B002B63D0464BD3F81034CC
:104AB0001493444BD3F81834002B45D0189805F0C4
:104AC0009CF974E000238DF84F301498FFF7F7F944
:104AD0000346002B2CD01498FFF7D7F903468DF826
:104AE0001E30BDF808309B00374A13440693069BDE
:104AF00019689DF81E2013465B001344072202FA32
:104B000003F319409DF81E2013465B00134421FA5D
:104B100003F30593169B052B01D0169B00E003239E
:104B20001693059A169B9A4202D301238DF84F30B3
:104B30009DF84F30002B03D018991498FFF772F9A5
:104B4000149BDB681B681493149B002BBAD1189834
:104B500005F053F9002001F029F81A4BD3F8183466
:104B6000002B02D1049B174A9360002001F032F819
:104B70001DE0144BD3F81034129306E01298FFF79F
:104B80006BF9129BDB681B681293129B002BF5D10B
:104B90000E4B5B88012B0AD90D4A0E4BD31ADB084A
:104BA0001B0443F002030C491846FFF78BFDFFF787
:104BB00005FE034683F00103DBB218461BB05DF827
:104BC00004FB00BF4C080020040100206C00002002
:104BD00098BC0000E8BB0000E8D0000000B585B03C
:104BE0000023039323E0164BD3F8103402930123E0
:104BF0008DF807300FE00298FFF747F903461A4691
:104C0000039B934203D100238DF8073006E0029BFB
:104C1000DB681B680293029B002BECD19DF80730E8
:104C2000002B01D0039B07E0039B01330393039BFD
:104C3000092BD8DD4FF0FF33184605B05DF804FBB3
:104C40004C08002000B587B001900B468DF803306A
:104C5000FFF7C4FF0490049BB3F1FF3F01D1049B15
:104C600048E0049BDBB219460198FFF701F9234B9A
:104C7000D3F81034002B08D1204A019BC2F810341D
:104C8000019BDB6800221A600DE01C4BD3F8103446
:104C9000DA68019BDB6812681A60184BD3F810348D
:104CA000DB68019A1A60002305931CE00598FFF762
:104CB00091FA03468DF80F309DF803209DF80F30D0
:104CC000934228BF13468DF80E300198FFF7DDF8A8
:104CD000034618469DF80E301A460599FFF734FA38
:104CE000059B01330593FFF773F90246059B934239
:104CF000DCD3049B184607B05DF804FB4C08002089
:104D000000B583B00C4BD3F8103401930A4B012249
:104D10001A7009E00198FFF7C0F80198FFF790F8C2
:104D2000019BDB681B680193019B002BF2D100BF44
:104D300000BF03B05DF804FB4C08002000B58BB049
:104D400006AB00221A605A609A6004AB00221A6017
:104D50005A6041F26E03ADF8043043F22743ADF8D8
:104D60000630274B0293274A254BD31A9B080393FF
:104D700004AB06AA43F2274141F26E0002F028FA82
:104D80000990099B002B17D101AA06AB11461846C2
:104D900002F009FA09901C4B5B88022B2BD91B4AA5
:104DA0001B4BD31ADB081B0443F00303099A194970
:104DB0001846FFF795FC1EE0099B48F209629342F2
:104DC00017D101AA06AB1146184602F0DDF9099089
:104DD0000D4B5B88022B0ED90C4A0D4BD31ADB0806
:104DE0001B0443F00303099A0B491846FFF778FCAC
:104DF00001E003230993099B18460BB05DF804FBFF
:104E000004010020F40100206C00002098BC000088
:104E1000E8BB0000FCD0000030D1000000B58BB032
:104E200004AB00221A605A609A6002AB00221A603A
:104E30005A6002AB04AA43F2274141F26E0002F02D
:104E4000C7F90990099B002B1FD16B4600221A60FD
:104E50005A606A4604AB1146184602F00BF90990F5
:104E6000099B002B2AD1184B0893184A164BD31ACA
:104E70000793019B079A1946089806F0D7FD04ABE3
:104E8000184602F035F9099018E0099B48F20962CA
:104E9000934211D10E4B5B88012B0AD90D4A0E4B60
:104EA000D31ADB081B0443F002030C491846FFF732
:104EB00009FC0523099301E003230993099B184684
:104EC0000BB05DF804FB00BF04010020F4010020DA
:104ED0006C00002098BC0000E8BB000064D100001A
:104EE00082B00190019B9B68D3F84831C3F3400323
:104EF000DBB2002B14BF01230023DBB2184602B043
:104F00007047000000B587B00190124A124BD31AC7
:104F10001B0904930023059312E0059B1B010E4A15
:104F200013440393039B9B681946019806F0DAFD2E
:104F30000346002B01D1039B07E0059B013305933A
:104F4000059A049B9A42E8D30023184607B05DF8FF
:104F500004FB00BF50BE000040BE000010B586B08C
:104F60000390029101920093019B53F8043C059336
:104F70000598FFF7C7FF0490049B002B06D0009C08
:104F8000019B029A04990398A04705E0059B044AF7
:104F90000221039803F0CCF900BF06B010BD00BF9A
:104FA000B4D1000010B58CB007900691059204931F
:104FB000FFF70EF80A900698FEF781FF034683F08C
:104FC0000103DBB2002B04D02D4A0221079803F025
:104FD000AFF92C4B2C4A0821079803F0A9F92B4A6A
:104FE0000821079803F0A4F900230B9340E0069BE7
:104FF000DB681B790993012301220B990998FFF7BC
:10500000F7F803468DF82330002301220B99099805
:10501000FFF7EEF803468DF822309DF82230042B7E
:1050200028BF04238DF8213001210B98FFF70CF8DD
:1050300004469DF82330164A52F823309DF821206B
:10504000134951F822209DF821009DF82210884232
:1050500001D2104900E010490291019200932346C9
:105060000E4A0821079803F063F90B9B01330B9359
:105070000B9A0A9B9A42BAD300BF00BF0CB010BD76
:10508000CCD10000E0D10000ECD100000CD2000037
:10509000180200204CD2000050D2000054D2000070
:1050A00000B585B0039002910192039BD968019BE2
:1050B000029A0398FFF776FF00BF05B05DF804FB86
:1050C00000B585B0039002910192054B019A0299B7
:1050D0000398FFF743FF00BF05B05DF804FB00BF76
:1050E000A54F000000B587B001900091FEF770FF5A
:1050F00004900023059313E000210598FEF7A4FF18
:10510000039020220199039806F06CFC0346002BC3
:1051100003D1009B059A1A6006E0059B01330593B5
:10512000059A049B9A42E7D3059A049B9A4214BFBE
:1051300001230023DBB2184607B05DF804FB00B57D
:1051400087B00390029113468DF8073000230022A8
:1051500002990398FFF74CF803468DF817309DF835
:1051600007209DF817309A4201D9002307E09DF8E7
:1051700007301A4602990398FEF7E6FF0123184606
:1051800007B05DF804FB000000B58BB003900291FE
:105190000192009300238DF81B30029BDB681B7982
:1051A0000593019B002B00F0C780009B1B6864499E
:1051B000184606F097FC0346002B39D1019B012BC2
:1051C00005D1604A0221039803F0B2F8B4E0019BD4
:1051D000022B02D101238DF81B300023079310E02E
:1051E000009B04331868584A079B52F823300A2260
:1051F000194606F0F7FB0346002B06D0079B013348
:105200000793079B042BEBD900E000BF079B052BFE
:1052100008D1009B04331B684C4A0221039803F019
:1052200087F889E0079B8DF82730022308931CE05C
:10523000009B1B684649184606F054FC0346002BA9
:105240000BD1019B012B02D101238DF81B300023D0
:105250008DF827300123089307E0009B1B683D4A27
:105260000221039803F064F866E09DF81B30002BE0
:1052700023D00023079319E09DF827301A46079999
:105280000598FFF75CFF034683F00103DBB2002BB8
:1052900009D000210798FEF7D7FE03462E4A0221C7
:1052A000039803F045F8079B01330793FEF790FE40
:1052B0000246079B9342DFD33EE0089B079337E00B
:1052C00000230493079B9B00009A13441B6804AAC5
:1052D00011461846FFF706FF034683F00103DBB2D1
:1052E000002B0AD0079B9B00009A13441B681B4AA3
:1052F0000221039803F01CF817E0049B9DF8272077
:1053000019460598FFF71BFF034683F00103DBB244
:10531000002B0AD0049B00211846FEF795FE034699
:105320000D4A0221039803F003F8079B013307930A
:10533000079A019B9A42C3D30BB05DF804FB00BFF0
:105340006CD2000074D20000180200208CD2000041
:10535000ACD20000B4D20000CCD20000F0D20000E9
:1053600000B585B0039002910192039BD968019B1F
:10537000029A0398FFF708FF00BF05B05DF804FB31
:1053800000B585B0039002910192054B019A0299F4
:105390000398FFF7E3FD00BF05B05DF804FB00BF15
:1053A0008951000000B583B001900091009B00225C
:1053B000DA60009B00225A60009B064A9A60012135
:1053C0000198FEF741FE0246009B1A6000BF03B041
:1053D0005DF804FB48D6000082B001900091009B6C
:1053E0000022DA60009B00225A60009B074A9A6004
:1053F000019B042B04D8064A019B52F8233000E09D
:105400000023009A136000BF02B0704748D6000026
:105410002C02002000B585B0039002910192009308
:105420000298FEF743FD00BF05B05DF804FB0000E5
:1054300000B585B0039002910192054B019A029943
:105440000398FFF78BFD00BF05B05DF804FB00BFBC
:105450001554000000B585B0039002910192039BA2
:10546000D968019B029A0398FFF7D4FF00BF05B0EB
:105470005DF804FB00B585B00390029101920093A2
:105480000298FEF70AFD00BF05B05DF804FB0000BE
:1054900000B585B0039002910192054B019A0299E3
:1054A0000398FFF75BFD00BF05B05DF804FB00BF8C
:1054B0007554000000B585B0039002910192039BE2
:1054C000D968019B029A0398FFF7D4FF00BF05B08B
:1054D0005DF804FB00B58BB005900491039205982C
:1054E000FFF7FEFC0346002B05D0002200210598A3
:1054F00003F04AF835E01C4A1C4BD31A1B090893E9
:105500000023099329E0099B1B01184A13440793C0
:10551000079BDB681B79FF2B07D1079B9B68144A0D
:105520000821059802F004FF14E0079B9968079B87
:10553000DB685B79002B01D00E4B00E00E4B079A25
:10554000D2681279019200930B460C4A0821059803
:1055500002F0EEFE099B01330993099A089B9A42D7
:10556000D1D30BB05DF804FB50BE000040BE00007C
:1055700004D3000024D300002CD3000038D3000053
:1055800086B001900091009B0022DA60009B00220F
:105590005A60009B164A9A60009B00221A60002302
:1055A00005930023049318E0049B1B01114A134444
:1055B0000393039BDB681B79FF2B0BD0019A059BA0
:1055C0009A4204D1039B9A68009B1A600DE0059BE8
:1055D00001330593049B01330493074A054BD31A07
:1055E0001B09049A9A42DFD300BF00BF06B0704780
:1055F000B8D6000040BE000050BE000000B585B027
:105600000390029101920398FFF76AFC0346002B76
:1056100005D000220021039802F0B6FF0FE0FFF74B
:10562000FDFB0346002B05D1064A0821039802F032
:105630007FFE04E0044A0221039802F079FE05B0DF
:105640005DF804FB90D40000A8D4000000B585B03C
:105650000390029101920398FFF742FC0346002B4E
:1056600005D000220021039802F08EFF0FE0FFF723
:1056700065FB0346002B05D1064A0821039802F07A
:1056800057FE04E0044A0221039802F051FE05B0DF
:105690005DF804FBCCD40000E4D4000000B587B072
:1056A000059004910392049B012B05D00598FFF708
:1056B00017FC0346002B05D000220021059802F0BC
:1056C00063FF0DE0039B1A68039B04331B6801937F
:1056D000054B00931346054A0221059802F028FE67
:1056E00007B05DF804FB00BF00D60000F4D5000051
:1056F00000B585B00190019B002B0AD0074B43F009
:1057000001030393019B9B010293039B029898471B
:1057100000E000BF05B05DF804FB00BFC0D700008B
:1057200000B583B00190019B002B0AD04FF47A7032
:10573000FFF7DEFF019B013B0193019B002BF5D19D
:1057400000E000BF03B05DF804FB08B505F098FD6C
:1057500000BF08BD00B589B0039002910192019B82
:10576000002B33D00023079303230693029A079B51
:105770001344019A1946002005F032FD0590079A5E
:10578000059B13440793019A059BD31A0193059B2C
:10579000002B13D10F4B1B7883F00103DBB2002BDE
:1057A00013D10120FFF7BCFF069B013B0693069B2C
:1057B000002B03D1074B00221A7007E0054B012292
:1057C0001A70019B002BD1D100E000BF00BF09B0CF
:1057D0005DF804FB6C0C002000B585B003900291CD
:1057E000064B00934FF48073054A0299039800F02A
:1057F00013F800BF05B05DF804FB00BF555700006B
:10580000700C002082B0019000BF02B0704782B0DF
:10581000019000BF02B0704700B5A1B0059004919F
:1058200003920293049804F0D9FA039B1593029B08
:1058300016930023179300238DF8603000231993EB
:10584000229B1A9300231F930FA91F9B08220498E1
:1058500004F09EFB08231F93119B1293BDF8403068
:10586000ADF84C30BDF84230ADF84E3002238DF823
:1058700051309DF83C3003F00303DBB2012B26D1FD
:105880000F9BC3F395231C939DF83C30C3F3C203D5
:10589000DBB28DF85030BDF83C30C3F38313DBB27C
:1058A0001B931B9B9A0009A91F9B049804F070FB93
:1058B0001B9B9B001F9A13441F9312AA09A915ABA7
:1058C000009313461B9A1C9805F06EFD2FE09DF87F
:1058D0003C3003F00303DBB2022B28D1BDF83E308D
:1058E000C3F389139BB21E939DF83C30C3F3C203EC
:1058F000DBB28DF850301E9B082B28BF08231D9368
:1059000007A91F9B1D9A049804F042FB1F9A1D9B38
:1059100013441F931E9A1D9BD31A1E9315AB12AAF4
:1059200007A81D9905F0E2FD1E9B002BE3D104980A
:1059300004F063FA00BF21B05DF804FB82B001906F
:10594000019BDB6801225A7100BF02B07047000062
:1059500000B583B04FF0FF330193FFF7F6FE04214B
:105960000848FFF76FF90190019B002B03DA064905
:10597000412001F073FD0348FFF7E0FF00BF03B0D3
:105980005DF804FB40BE0000D8D7000086B003904D
:105990000291019201238DF817309DF81730204AAB
:1059A000039B13601E4A029B53601D4A019B936038
:1059B000039B44F20102934212D0039B44F2020281
:1059C000934220D1019B164AD360154BDB681B68BC
:1059D000134A9361124BDB685B68114AD36112E092
:1059E000019B0F4A13610E4B1B699B680C4A536164
:1059F0000B4B1B691B680A4A9361094B1B695B6867
:105A0000074AD36100BF72B600BF00BF9DF81730D0
:105A1000DBB2002BFAD162B600BF00BF06B0704700
:105A2000700D002000B583B002900091019244F205
:105A3000010071466A4600F003F803B000BD00BFE4
:105A400030B58BB007900691059272B600BFFFF794
:105A500057F900BFFEF7C0FE0346002BFAD1079BA3
:105A600044F2010293421AD0079B44F2020293428D
:105A70004AD1059B0993374B5B88002B55D0364A9A
:105A8000364BD31ADB081B0443F00100099B5B680B
:105A90001A46099B1B683249FEF733FE45E0059B19
:105AA00008932C4B5B88002B1ED02B4A2B4BD31A10
:105AB000DB081B0443F00104089B9D68089B9B685E
:105AC000184604F0A7FB03461846089B5B68194676
:105AD000089B1B68069A02920193009103462A468E
